:1078000011E0A0E0B1E001C01D92A53DB107E1F794
:10781000CDB7DEB76897DEBFCDBF112414BE88E1B7
:107820008093600089E2809360008FEE84B963E00A
:1078300083E205D26FE584E202D26BE381E2FFD1FD
:107840006CE485E2FCD167E286E2F9D111D263E70C
:1078500080E5F5D166E08DE3F2D16FE38CE3EFD103
:107860006EEF80E2ECD185E057D143E050E060E07C
:1078700070E08AEC91E036D348E050E06BE171E0D3
:1078800082EC91E02FD38FEF8093CC018093CB01DA
:107890002091CA012093A2012093A1018093A70106
:1078A0008093A30182E08093A4018091A501887058
:1078B00083608093A5012F3FD1F130E040E050E09C
:1078C00060E070E080E090E034504E4157456745FD
:1078D0007F4F8F4F9F4F29013A014B015C01298B4C
:1078E0005A8A4B8B7C8A6D8B9E8A8F8BB88E85E0F3
:1078F000FE017196ADECB1E001900D928A95E1F731
:1079000045E0BE016F5E7F4F8AE283D149865A8689
:107910006B867C868D869E86AF86B88A45E0BE01E2
:10792000675F7F4F8BE275D163E082E288D168E0C8
:1079300087E0A3D1811101C04DD11092A3018091A4
:10794000CA018F3FF1F489838CEF8A8381EE8B83A8
:1079500088EA8C838D831E821F82188645E0BE01D3
:107960006F5F7F4F8BE255D164E083E086D188233F
:1079700039F087E891E084D2682F80E090E0CBD2A4
:1079800020D1A8958091A401877080658093A4017F
:107990008091A5018871846C8093A50188E0E2EC58
:1079A000F1E0A8EAB1E001900D928A95E1F781E05B
:1079B00090E09093B1018093B00161E080E05DD1EF
:1079C000811101C007D148E050E067E871E082EC26
:1079D00091E073D2892B09F4FDD08FEF9FEF909344
:1079E000C9018093C80148E050E06BE171E082EC8E
:1079F00091E088D288E0E7E8F1E0A2ECB1E0019004
:107A00000D928A95E1F78091A4018770806380933D
:107A1000A4018091C2019091C3019093A901809328
:107A2000A8018091C4019091C5019093AB0180930E
:107A3000AA01A090C601B090C70185010150104F66
:107A400064E0000F111F6A95E1F770E1972E88241A
:107A50008394E5E07E2EF1E16F2EA114B10409F4C8
:107A60004EC081E0A81AB108B092AD01A092AC015D
:107A700063E082E002D1882309F482CF802F8077EF
:107A8000A82FB0E0A050BF4FEDE8F1E0992D019094
:107A90000D929A95E1F781112FC083E0F801809350
:107AA0005700E89507B600FCFDCF4091000180E04B
:107AB00090E0DC01A050BF4FFC01E00FF11F1196D8
:107AC0002C91119730E0322F2227240F311D09010C
:107AD00080925700E895112412964C9102968038B6
:107AE000910539F7F80170925700E89507B600FC48
:107AF000FDCF60925700E89500511109AECFA895CF
:107B00002CD0882309F43CCF48E050E06BE171E0D1
:107B100082EC91E0F7D134CF90E0981751F02DE747
:107B200030E000002150310921153105D1F79F5F68
:107B3000F4CF089598E087FF02C02B9A01C02B98DC
:107B400000002D9A000023B1880F22952170822B0E
:107B50002D980000915079F708958091C601909179
:107B6000C70124E0880F991F2A95E1F7E0E0F0E0D3
:107B70002FEF3FEFE817F907D1F044912427422F68
:107B800042954227042E469546954025042E46955B
:107B900040254770022E232F469507944795302D98
:107BA000242706944795302524273196E3CF81E09A
:107BB0004091C8015091C9012417350709F080E0B0
:107BC0000895F999FECF88E18093600088E0809362
:107BD0006000FFCFC2DF882341F088E1809360001E
:107BE00010926000E0E0F0E00994EBDF1F93CF9388
:107BF000DF93EB01142F2A989DDF1C0F1C1721F037
:107C00008FEF98DF8993FACF2A9ADF91CF911F9156
:107C100008951F93CF93DF93EB01142F2A988ADFE7
:107C20001C0F1C1719F0899185DFFBCF2A9ADF9171
:107C3000CF911F91089541E060E070E0D7CFCF93DE
:107C4000DF931F92CDB7DEB7698341E0BE016F5F5E
:107C50007F4FDFDF0F90DF91CF91089540E060E02C
:107C600070E082EED6CF40E060E070E081EED1CFF0
:107C7000F5DFF9DF60E787E2E2CF6F927F928F92C4
:107C80009F92AF92BF92CF92DF92EF92FF920F93AB
:107C90001F93CF93DF93CDB7DEB7AA97DEBFCDBFDB
:107CA000762E8093A60105E041E2642EE1EAF1E040
:107CB000DE011196862D01900D928A95E1F7FB80E9
:107CC0001C81169516951695195F2091CB01299860
:107CD0002AA7CEDF6EEF80E2B2DF2AA530E040E0D7
:107CE00050E060E070E080E090E034504E41574555
:107CF00067457F4F8F4F9F4F2AA33BA34CA35DA3A4
:107D00006EA37FA388A799A745E0BE016E5D7F4F54
:107D10008AE27FDF45E0BE016E5D7F4F80E379DF61
:107D20008FEFF81202C080EB01C080EA412FBE0144
:107D30006F5F7F4F6EDF299A81E0EEDE299840E089
:107D400060E070E08FEF52DF8073C9F360E787E295
:107D500076DF84FD88DF6FE080E271DF89DF80906D
:107D6000CD019090CE01A090CF01B090D001C090F5
:107D7000D101D090D201E090D301F090D4019401D0
:107D8000A501B601C701A0E06FD029F045E06DEC78
:107D900071E08AE23EDF299A14E134E6F32EA895D9
:107DA00087E149DF80FD4BC080E645DF813210F07E
:107DB00055DF80E0482F60E871E081E617DF60E77B
:107DC00087E23DDF809183018770823059F5909181
:107DD00082018091CA01981325C040918401842FAB
:107DE00087708330B1F480918501883091F450918F
:107DF0008701252F30E08091CC0190E00197281772
:107E000039073CF45F5F5093CC01809181018093EE
:107E1000CB018091A5018427877021F48091850191
:107E2000871559F0FA9409F0BACF115009F0B5CF7F
:107E3000015009F03BCF80E005C081E003C08AE03B
:107E40006BDEF0CFAA96DEBFCDBFDF91CF911F9141
:107E50000F91FF90EF90DF90CF90BF90AF909F90E9
:107E60008F907F906F9008950024A7FD00942A17AB
:107E700030054005500560057005800590050895A2
:107E8000FC0188279927E89421912032E9F32930D1
:107E900010F02E30C8F32B3239F02D3231F46894C3
:107EA00003C018D0820F911D219120532A30C8F3AE
:107EB0001EF4909581959F4F0895FB01DC0104C04D
:107EC0008D910190801921F441505040C8F7881BD2
:107ED000990B08957AE0979F902D879F802D910DA3
:107EE00011240895DC01CB01FC01F999FECF06C0F5
:107EF000F2BDE1BDF89A319600B40D924150504068
:107F0000B8F70895DC01CB0102C02D9105D0415096
:107F10005040D8F70895262FF999FECF1FBA92BD89
:107F200081BD20BD0FB6F894FA9AF99A0FBE01965A
:027F30000895B2
:040000030000780081
:00000001FF
