:1070000011E0A0E0B1E0EEEAFCE702C005900D92CD
:10701000AC31B107D9F711E0ACE1B1E001C01D928C
:10702000A43FB107E1F71124809161008F7090E0D7
:1070300090939D0180939C0182E090E020E80FB640
:10704000F89420936100809361000FBE14BE29E282
:1070500088E190E00FB6F894A895809360000FBE89
:107060002093600082E08093C00088E18093C1009B
:1070700086E08093C20083E38093C40088E091E0BF
:107080000E943D3AA8951092EB011092EC011092EB
:10709000ED011092EE011092EF011092F0011092AA
:1070A000F1011092F20184B18E6284B9249885B105
:1070B000857D85B92A9A8AE090E00E94253A6FE59D
:1070C00084E00E94E43A6BE381E00E94E43A6CE4DD
:1070D00085E00E94E43A86E00E94CD3A682F607D08
:1070E000676286E00E94E43A80E00E94CD3A682F11
:1070F0006C6080E00E94E43A60E787E00E94E43A36
:107100002A9881E090E00E94253A80E50E94A63A04
:1071100083E70E94A63A2A9A81E090E00E94253AED
:107120008DE10E94CD3A682F66608DE10E94E43ABD
:107130008CE10E94CD3A682F6F638CE10E94E43AA3
:1071400082EE0E94BA3A81EE0E94BA3A0E94063B51
:1071500080E00E94CD3A682F6E7F80E00E94E43A82
:107160000FEF1CEF21EE38EA48EA50E060E070E0F3
:1071700082E00E943B3BA89543E050E060E070E075
:1071800088EE91E00E940B3EA8958091E8018093E3
:10719000C0018093BF010E949A3B9FEF9093C5016D
:1071A0008091C30122E02093C2019093EA0188708C
:1071B00083608093C3019093C10168E087E00E94DF
:1071C000D03B811102C00E94893A1092C101809186
:1071D000E8018F3FB9F50FEF1CEF21EE38EA48EADE
:1071E00050E060E070E081E00E943B3B64E083E0BF
:1071F0000E94D03B811102C00E94493A8091A201B5
:10720000829586958770813029F48091A5018093BD
:10721000E80108C0811106C085EA91E00E94C43DE2
:107220008093E8016091E8016F3F31F380E090E0E6
:107230000E94253E8091E8018093C0018093BF01A8
:107240000E949A3B48E050E06BE171E080EE91E0F3
:107250000E940B3E8091C3019091C2019770906291
:107260009093C2018871846C8093C3018091E00186
:107270009091E1019093C7018093C6018091E20152
:107280009091E3019093C9018093C80161E080E08F
:107290000E94D03B811102C00E94893A2091A7012F
:1072A0003091A8018091E2019091E30128173907FC
:1072B000D9F42091A9013091AA018091E401909123
:1072C000E5012817390781F42091AB013091AC0119
:1072D0008091E6019091E7012817390729F40E946F
:1072E000553A81110E94893A2091A5013091A60159
:1072F0003093E1012093E0018091A7019091A801D2
:107300009093E3018093E2014091A9015091AA0179
:107310005093E5014093E4014091AB015091AC01E1
:107320005093E7014093E6014091C20147704063EA
:107330004093C2013093C7012093C6019093C901C5
:107340008093C80100E010E0C0E0D0E080E1F82EBA
:10735000EE24E39495E0D92E21E1C22E57C0D093BC
:10736000CB01C093CA0163E082E00E94D03B882336
:1073700009F442CF202F2077822F90E0DC01A45E19
:10738000BE4FEBEAF1E03F2D01900D923A95E1F707
:10739000203709F038C09801281B390B7FB7F894C3
:1073A000F999FECF83E0F90180935700E89507B67D
:1073B00000FCFDCF60911C0180E090E0DC01A45E48
:1073C000BE4FFC01E20FF31F11964C91119750E054
:1073D000542F4427460F511D0A01E0925700E895AB
:1073E000112412966C9102968038910509F0E6CF2F
:1073F000F901D0925700E89507B600FCFDCFC09286
:107400005700E8957FBF2196005F1F4F8091E401F0
:107410009091E501C817D90708F4A1CFA8950E945B
:10742000553A882369F048E050E06BE171E080EE66
:1074300091E00E941B3E8CE091E00E943D3ADCCE40
:1074400083E191E00E943D3AD7CE40E050E04817FA
:10745000590759F024EF31E000002150310921157E
:107460003105D1F74F5F5F4FF2CF08959091C00083
:1074700095FFFCCF8093C6000895CF93DF93EC0176
:107480008991882319F00E94363AFACFDF91CF9183
:10749000089528E088E190E00FB6F894A8958093CD
:1074A00060000FBE20936000FFCF8091E4019091B7
:1074B000E50124E0880F991F2A95E1F7E0E0F0E06C
:1074C0002FEF3FEFE817F907D1F044912427422F1F
:1074D00042954227042E469546954025042E469512
:1074E00040254770022E232F469507944795302D4F
:1074F000242706944795302524273196E3CF81E051
:107500004091E6015091E7012417350709F080E02A
:1075100008950E94553A8823B9F088E10FB6F8948F
:1075200080936000109260000FBE80919C0190914A
:107530009D0120E80FB6F8942093610080936100CC
:107540000FBEE0E0F0E009940E94493A98E00000A4
:1075500087FD02C02B9801C02B9A00002D9A23B101
:10756000880F22952170822B00002D9800009150E9
:1075700071F70895CF93C82F2A9881E090E00E9478
:10758000253A8C2F0E94A63AC82F2A9A81E090E0D3
:107590000E94253A8C2FCF910895CF93C82F2A9817
:1075A00081E090E00E94253A8C2F8F710E94A63ACC
:1075B0008FEF0E94A63AC82F2A9A81E090E00E949D
:1075C000253A8C2FCF9108951F93CF93DF931F926D
:1075D000CDB7DEB7182F2A9881E090E069830E942A
:1075E000253A812F8F7180620E94A63A182F6981F7
:1075F000862F0E94A63A2A9A81E090E00E94253ABE
:10760000812F0F90DF91CF911F91089580E00E940C
:10761000CD3A81FD0CC080E00E94CD3A682F6260B7
:1076200080E00E94E43A85E090E00C94253A0895C9
:107630000F931F93CF93DF93182FEB012A9881E0CC
:1076400090E00E94253A812F8F7180620E94A63AB5
:10765000082F16E0115021F089910E94A63AFACF26
:107660002A9A81E090E00E94253A802FDF91CF9105
:107670001F910F9108957F928F929F92AF92BF9228
:10768000CF92DF92EF92FF920F931F93CF93DF93EE
:10769000CDB7DEB728970FB6F894DEBF0FBECDBFCB
:1076A000782E480159016A017B01811110C00093B5
:1076B000EB019092EC012093ED01B092EE0140932A
:1076C000EF01D092F0016093F101F092F201898212
:1076D0009A82AB82BC82CD82DE82EF82F88681E024
:1076E000871538F0BE016F5F7F4F8AE0870D0E94DB
:1076F000183B82E00E94CD3A61E070E001C0660F65
:107700007A94EAF7682B82E00E94E43A28960FB652
:10771000F894DEBF0FBECDBFDF91CF911F910F91C7
:10772000FF90EF90DF90CF90BF90AF909F908F90A1
:107730007F9008954F925F926F927F928F929F9267
:10774000AF92BF920F931F938F3FF9F0282F30E035
:1077500040E050E060E070E080E090E034504E4166
:10776000574567457F4F8F4F9F4F3A014B015C0153
:1077700089019A01AB01BC0180E00E943B3B93016F
:10778000A401B50181E00E943B3B1F910F91BF9086
:10779000AF909F908F907F906F905F904F900895E3
:1077A0002F923F924F925F926F927F928F929F9211
:1077B000AF92BF92CF92DF92EF92FF920F931F93FF
:1077C000CF93DF93CDB7DEB7AB970FB6F894DEBF9C
:1077D0000FBECDBF462E8093C4018AE08AA751E236
:1077E000752E6EE9262E61E0362EEFEBF1E0DE011C
:1077F0001196872D01900D928A95E1F71B81FC80EF
:10780000F694F694F694E7E0FE0E2091E9012BA79A
:107810000E94063B299881E090E00E94253A81EE83
:107820000E94BA3A82EE0E94BA3A80E00E94CD3AB3
:10783000682F6E7F80E00E94E43A2BA530E040E0A4
:1078400050E060E070E080E090E034504E415745F9
:1078500067457F4F8F4F9F4F2AA33BA34CA35DA348
:107860006EA37FA388A799A7BE016E5D7F4F8AE0B4
:107870000E94183BBE016E5D7F4F80E10E94183B65
:107880001F3F11F410EB01C010EA80E091E00E946C
:107890003D3A2A9881E090E00E94253A812F0E948B
:1078A000A63A8E010F5F1F4FDF2CDD20C9F0780153
:1078B000F80181918F014AE050E0BE016E5D7F4F7B
:1078C00090E00E94E23DCE0182960E943D3A8CE219
:1078D0000E94363AF70180810E94A63ADA94E5CFF9
:1078E0002A9A81E090E00E94253A8AE00E94363A86
:1078F000299A81E090E00E94253A299881E090E061
:107900000E94253A8FEF0E94BA3A8073D9F360E75C
:1079100087E00E94E43A84FF03C081EE0E94BA3AF5
:107920000E94063B80E00E94CD3A682F616080E0B3
:107930000E94E43A60E787E00E94E43A8090EB011D
:107940009090EC01A090ED01B090EE01C090EF019D
:10795000D090F001E090F101F090F2019401A501C6
:10796000B601C701A0E00E94B83D71F08AA29BA2B7
:10797000ACA2BDA2CEA2DFA2E8A6F9A6BE016E5DB2
:107980007F4F8AE00E94183B82EE0E94BA3A81EE55
:107990000E94BA3A299A81E090E00E94253A04E1D7
:1079A00010E0A89544E6E42EF12CA89587E10E940A
:1079B000CD3A80FF05C081E090E00E94253AABC03F
:1079C0008FEF0E94BA3A682E6694F62DF7706F2EEC
:1079D00087E0F81781F32A9881E090E00E94253A29
:1079E00080E60E94A63A8FEF0E94A63A582E2A9A65
:1079F00081E090E00E94253AE0E2E51520F482EE75
:107A00000E94BA3A512C84E091E00E943D3A2A98B3
:107A100081E090E00E94253A81E60E94A63A3EE984
:107A2000C32E31E0D32E520C5C14B1F08FEF0E94C4
:107A3000A63AF60181936F014AE050E0BE016E5D07
:107A40007F4F90E00E94E23DCE0182960E943D3A37
:107A50008CE20E94363AE8CF2A9A81E090E00E94B8
:107A6000253A8AE00E94363A60E787E00E94E43ACD
:107A70002A9881E090E00E94253A862D886A0E942B
:107A8000A63A862D0E94A63A2A9A81E090E00E94AA
:107A9000253A8091A1018770823009F03CC0909115
:107AA000A0018091E801981386CF8091A201877090
:107AB000833011F58091A3018830F1F44091A50144
:107AC000242F332727FD30958091EA0190E001971C
:107AD000281739078CF44F5F4093EA0160919F01AA
:107AE0006093E90181E090E00E94253E6091EA0107
:107AF00082E090E00E94253E8091C3019091A20116
:107B00008927877009F057CF8091A301841153CF43
:107B1000E1E0EAA712C0F1E0EF1AF108E114F10484
:107B200009F043CF015011090115110509F039CFB2
:107B30008AA581508AA7811158CE8AA5AB960FB627
:107B4000F894DEBF0FBECDBFDF91CF911F910F9193
:107B5000FF90EF90DF90CF90BF90AF909F908F906D
:107B60007F906F905F904F903F902F900895189561
:107B70000024A7FD00942A17300540055005600534
:107B80007005800590050895FC0188279927E894E1
:107B900021912032E9F3293010F02E30C8F32B3236
:107BA00041F02D3239F4689404C00E94033E820FE4
:107BB000911D219120532A30C0F31EF49095819598
:107BC0009F4F0895FB019F01E8944230C4F0453275
:107BD000B4F44A3029F497FB1EF4909581959F4F99
:107BE000642F77270E94433E805D8A330CF0895DC5
:107BF0008193CB010097A1F716F45DE251931082B7
:107C0000C9010C94333E7AE0979F902D879F802D79
:107C1000910D11240895DC01CB01FC01F999FECFEF
:107C200006C0F2BDE1BDF89A319600B40D92415004
:107C30005040B8F70895DC01CB0103C02D910E949C
:107C4000263E41505040D0F70895262FF999FECF97
:107C50001FBA92BD81BD20BD0FB6F894FA9AF99A69
:107C60000FBE01960895DC01FC01672F7191772307
:107C7000E1F7329704C07C916D9370836291AE17E7
:107C8000BF07C8F30895AA1BBB1B51E107C0AA1F79
:107C9000BB1FA617B70710F0A61BB70B881F991FAD
:0E7CA0005A95A9F780959095BC01CD010895E5
:107CAE003C2D20002D3E2000476F0A006677206F86
:0C7CBE006B0A006677206E6F6B0A0000F6
:040000030000700089
:00000001FF
